:020000020000FC
:100000000FEF0DBF08E00EBF0FEF04B907B900E016
:1000100005B908B90AB90FEF0BB91FEF20E040E0AE
:1000200009B11017E9F30E94380009B11017C1F3A4
:10003000102F0E941E000E942300F2CF0B3F41F0C0
:100040000F3E51F008950F3D59F00F3B69F00895B0
:1000500023952F7025B9E4CF2A952F7025B9E0CFCD
:1000600043954F7048B9DCCF4A954F7048B9D8CF07
:100070003FEF3A953030E9F73FEF3A953030E9F706
:0A0080003FEF3A953030E9F708959C
:00000001FF
