:020000020000FC
:1000000000E80093610004E0009361000FEF0DBF72
:1000100008E00EBF0FEF04B90AB900E005B90BB94B
:1000200000E207B90FE108B91FEF20E040E006B198
:100030001017E9F30E945B0006B11017C1F3102FEF
:100040000E9427000E942C000E943100F0CF0E3148
:1000500059F00D3179F008950B3191F00731B9F075
:1000600008950F30D9F008952395522F5295507F5F
:100070005BB9DDCF2A95522F5295507F5BB9D7CF10
:1000800043954F70642F660F660F65B9D0CF4A95C0
:100090004F70642F660F660F65B9C9CF642F620F6A
:1000A00018F06F706BB9C3CF459A6F706BB90E942F
:1000B00068004598BCCF3FEF3A953030E9F73FEF05
:1000C0003A953030E9F73FEF3A953030E9F7089547
:1000D0006FEF7FEF6A95F1F77A95E1F76FEF7FEFBA
:1000E0006A95F1F77A95E1F76FEF7FEF6A95F1F78F
:1000F0007A95E1F76FEF7FEF6A95F1F77A95E1F77F
:100100006FEF7FEF6A95F1F77A95E1F76FEF7FEF89
:0A0110006A95F1F77A95E1F708957A
:00000001FF
